:020000040800F2
:1000000000000220610F0008950E0008970E0008FE
:10001000990E00089B0E00089D0E000800000000CD
:100020000000000000000000000000009F0E00081B
:10003000A10E000800000000A30E0008A50E000895
:10004000B10F0008B10F0008B10F0008B10F000890
:10005000B10F0008B10F0008A90E0008AF0E00088C
:10006000B50E0008BB0E0008C10E0008B10F000855
:10007000B10F0008B10F0008B10F0008B10F000860
:10008000B10F0008B10F0008B10F00080000000018
:10009000000000000000000000000000C70E000883
:1000A000B10F0008F10E0008B10F0008B10F0008F1
:1000B000B10F0008B10F0008B10F0008B10F000820
:1000C000B10F0008B10F0008B10F0008B10F000810
:1000D000B10F0008B10F0008B10F000800000000C8
:1000E000FD0E0008B10F0008B10F0008000000006D
:1000F000000000000000000000000000B10F000838
:1001000000000000B10F0008B10F0008B10F000897
:1001100000000000000000000000000000000000DF
:10012000B10F0008B10F0008350F0008B10F00082B
:10013000B10F0008000000000000000000000000F7
:10014000000000000000000000000000B10F0008E7
:10015000B10F0008B10F0008410F0008B10F0008EF
:10016000B10F0008B10F00080000000000000000FF
:10017000000000000000000000000000000000007F
:1001800000000000B10F00080000000000000000A7
:08019000B10F0008B10F0008D7
:1001980010B5054C237833B9044B13B10448AFF3B9
:1001A80000800123237010BD14000020000000000F
:1001B800E825000808B5034B1BB103490348AFF312
:1001C800008008BD0000000018000020E825000895
:1001D80053B94AB9002908BF00281CBF4FF0FF31A6
:1001E8004FF0FF3000F088B9ADF1080C6DE904CE8E
:1001F80000F006F8DDF804E0DDE9022304B07047FA
:100208002DE9F047089D8E4604468846002B4AD1C2
:100218008A42174662D9B2FA82F64EB1C6F1200375
:1002280001FA06F820FA03F3B74043EA0808B44095
:100238004FEA174E1FFA87FCB8FBFEF1230C0EFBA2
:10024800118843EA084301FB0CF29A4209D9FB18CA
:1002580001F1FF3080F0EA809A4240F2E7800239EB
:100268003B449A1AA3B2B2FBFEF00EFB102243EAFB
:10027800024300FB0CFC9C4509D9FB1800F1FF3236
:1002880080F0D6809C4540F2D3803B44023840EA57
:100298000140A3EB0C0300211DB1F3400022C5E986
:1002A8000032BDE8F0878B4205D90DB1C5E90001E0
:1002B80000210846F5E7B3FA83F1002946D17345D2
:1002C80002D3824200F20581841A6EEB03020120F8
:1002D8009046002DE5D0C5E90048E2E7002A00F085
:1002E8009080B2FA82F6002E40F0A4808A1A030C9D
:1002F8004FEA174E80B2BCB20121B2FBFEFC0EFBE6
:100308001C2243EA024304FB0CF29A4207D9FB1869
:100318000CF1FF3802D29A4200F2E080C4469B1AE0
:10032800B3FBFEF20EFB123340EA034302FB04F474
:100338009C4207D9FB1802F1FF3002D29C4200F21E
:10034800CA8002461B1B42EA0C40A5E7C1F1200601
:100358008B4022FA06F71F430EFA01F420FA06F33F
:100368002EFA06FE4FEA1749234300FA01F81FFA4E
:1003780087FCBEFBF9F01C0C09FB10EE44EA0E44A6
:1003880000FB0CFEA64502FA01F209D93C1900F15E
:10039800FF3A80F09C80A64540F2998002383C44A0
:1003A800A4EB0E041FFA83FEB4FBF9F309FB134414
:1003B8004EEA044403FB0CFCA44508D93C1903F19C
:1003C800FF3E80F08280A4457FD9023B3C4443EA4B
:1003D8000040A4EB0C04A0FB02EC64457346E14624
:1003E80062D35FD05DB1B8EB030264EB090404FA91
:1003F80006F622FA01F31E43CC40C5E90064002149
:100408004FE7B1FBF2FC010C41EA0E4180B240EA31
:1004180001423B4638463C46B846BE462026B1FB1C
:10042800F7F1A2EB080241EA0C4166E7014618E73A
:1004380010462CE7C6F120022EFA02F3B740B1406D
:1004480020FA02F24FEA174E0A43B3FBFEF8BCB299
:100458000EFB1833110C41EA034108FB04F9B040C4
:1004680089454FEA104380B23ED9791808F1FF3C1C
:1004780001D289451FD8A1EB0901B1FBFEF909FB9F
:1004880004F80EFB191192B242EA0142424529D200
:10049800BA1809F1FF31C4D24245C2D2A9F102010A
:1004A8003A44BEE7F0459DD2BEEB02036CEB070C65
:1004B8000138E14696E7A7EB09094944A8F1020C7F
:1004C800B1FBFEF909FB04F8DBE773467FE750460A
:1004D80066E70846FDE63B44023A33E7ACF1020C16
:1004E8003B441CE749469CE7A1EB0901C446B1FB24
:1004F800FEF909FB04F8C4E7704700BF00B58BB0EC
:1005080040238DF8043020238DF806308DF805003F
:100518000DF1070301F1200251F8040B43F8040B15
:100528009142F9D10A238DF827302422142301A9F6
:10053800024801F052FE0BB05DF804FB680200208F
:1005480010B594B01422002109A801F0EEFF14227E
:10055800002103A801F0E9FF00231E4A0193116C52
:1005680041F080511164126C02F080520192019A9C
:10057800194A0293116841F440411160126802243B
:1005880002F440420820CDE90E4302926423CDE9EB
:100598001003029A089401211022042308A8CDE927
:1005A8000B121294139301F055F808B172B6FEE7D6
:1005B8000F23CDE903344FF48053CDE9063005907D
:1005C800032103A801F022FA08B172B6FEE714B0BD
:1005D80010BD00BF00380240007000402DE9F04314
:1005E8002DED028B00248DB000F004FDFFF7A8FF6D
:1005F800CDE90A44A54D01942B6BA54843F00403AB
:100608002B632B6B03F004030193019B02942B6B68
:1006180043F080032B632B6B03F080030293029B50
:1006280003942B6B43F001032B632B6B03F0010343
:100638000393039B04942B6B43F002032B632B6BF4
:1006480003F0020304930126049B09964CF6070362
:100658004FF4881707A9CDE9073700F029FF43F2BF
:10066800F8738C48099607A9CDE9073700F020FFF1
:1006780022462146062000F0FBFC062000F02AFD59
:1006880022462146072000F0F3FC072000F022FD57
:1006980022462146082000F0EBFC082000F01AFD55
:1006A80022462146092000F0E3FC092000F012FD53
:1006B800224621460A2000F0DBFC0A2000F00AFD51
:1006C80022462146172000F0D3FC172000F002FD37
:1006D80022462146282000F0CBFC282000F0FAFC16
:1006E80000942B6B43F480032B632B6B6A4D03F44C
:1006F80080032246214600933A20009B00F0B8FC74
:100708003A2000F0E7FC22462146462000F0B0FCE3
:10071800462000F0DFFC614A2C614FF4E133C5E963
:10072800002328460C23C5E90244C5E90534EC61D9
:1007380001F024FD064608B172B6FEE70146102214
:1007480007A801F0F2FE564C564BA6606327C4E991
:10075800003720464FF0FF33CDE90566C4E903367C
:10076800A66101F045FB08B172B6FEE74FF480536D
:1007780007A92046079301F071FB08B172B6FEE79E
:10078800CDE9050005A9204601F002FC08B172B6C2
:10079800FEE7454E454BB060C6E9003740F2E73307
:1007A800C6E90330B061304601F022FB08B172B6E9
:1007B800FEE73F492822284601F08CFEEB6B3D4DB1
:1007C8001A68136843F008031360304601F006FA0C
:1007D800204601F0D5F9384E0023002256F82310A0
:1007E800B1F5FA7F88BF05EB830103F1010388BFE8
:1007F8000A60102BF2D1DFF8E080304BD8F80020E7
:100808001B689A4222D92E4F9FED2E8A00244FF65C
:10081800FF7905EB840393ED000A20EE080A01F046
:10082800B1FE4845A8BF484620EAE0700134C0F34D
:100838000723102C3B70787007F10207E9D10023D9
:100848001F49C8F800300220FFF758FE1E4C1F4B06
:1008580022681B689A42BFD900231D4A1D491F46BA
:1008680031F81300C0F30720107031F8130021F895
:1008780013700133102B507002F10202F0D11449A9
:1008880027600120FFF73AFEA6E700BF00380240C4
:1008980000000240000402406802002000100140ED
:1008A800F8020020000C0040B00200200044014083
:1008B80058000020280100208000002000000020AF
:1008C800080100200000C842C400002004000020E5
:1008D800C8000020E8000020C00000200F2838B51C
:1008E8000D4602D99FED0D0A38BD0B685A6A0C4BAC
:1008F80053F8201053F8204043F82020141B002CF4
:10090800F0D001F01DF96B68400003FB0444B0FB14
:10091800F4F007EE900AB8EE670AE5E70000000079
:1009280068010020012808B50ED1934B934A9449D9
:1009380000201860138801339BB21380FFF7CEFFA5
:10094800904B83ED000A08BD02280FD18A4B8C49D1
:1009580000225A60894A538801339BB20120538090
:10096800FFF7BCFF874B83ED010AECE704280FD1A2
:10097800814B834900229A60804A938801339BB255
:1009880002209380FFF7AAFF7E4B83ED020ADAE785
:1009980008280FD1784B7A490022DA60774AD38841
:1009A80001339BB20320D380FFF798FF754B83ED8B
:1009B800030AC8E710280FD16F4B714900221A614A
:1009C8006E4A138901339BB204201381FFF786FF17
:1009D8006C4B83ED040AB6E720280FD1664B6849B3
:1009E80000225A61654A538901339BB2052053811D
:1009F800FFF774FF634B83ED050AA4E740280FD186
:100A08005D4B5F4900229A615C4A938901339BB22E
:100A180006209381FFF762FF5A4B83ED060A92E79F
:100A280080280FD1544B56490022DA61534AD389A2
:100A380001339BB20720D381FFF750FF514B83ED61
:100A4800070A80E7B0F5807F0FD14B4B4C49002255
:100A58001A624A4A138A01339BB208201382FFF7AD
:100A68003DFF484B83ED080A6DE7B0F5007F0FD1D5
:100A7800414B434900225A62404A538A01339BB290
:100A880009205382FFF72AFF3E4B83ED090A5AE7F4
:100A9800B0F5806F0FD1384B394900229A62374A36
:100AA800938A01339BB20A209382FFF717FF354BD5
:100AB80083ED0A0A47E7B0F5006F0FD12E4B304996
:100AC8000022DA622D4AD38A01339BB20B20D382EB
:100AD800FFF704FF2B4B83ED0B0A34E7B0F5805F7B
:100AE8000FD1254B264900221A63244A138B013360
:100AF8009BB20C201383FFF7F1FE224B83ED0C0A07
:100B080021E7B0F5005F0FD11B4B1D4900225A6346
:100B18001A4A538B01339BB20D205383FFF7DEFE35
:100B2800184B83ED0D0A0EE7B0F5804F0FD1124B2D
:100B3800134900229A63114A938B01339BB20E200A
:100B48009383FFF7CBFE0F4B83ED0E0AFBE6B0F560
:100B5800004F7FF4F8AE084B09490022DA63074AD0
:100B6800D38B01339BB20F20D383FFF7B7FE054B1E
:100B780083ED0F0AE7E600BF80000020E8000020B0
:100B8800F8020020280100202DE9F04702683A4BBE
:100B98009A4200AF80460E461AD13848DFF8E490F2
:100BA800374D01F068FB00234E441C46B14512D175
:100BB80028223449314801F08DFCD8F83C301B68B4
:100BC8001A6822F008021A601A6842F010021A60C5
:100BD800BD46BDE8F08719F8012B402A49D0002B03
:100BE800E4D00A2A3ED1A97801F1030C64452046D5
:100BF80038D12A54AB780431CCB21A1D944217D19B
:100C0800D91D01F4FC716A4695F801C0ADEB010DE0
:100C180068460DF1FF3E03210133994214DDBCF112
:100C2800030F17D1038818495BBA9BB20B6095462E
:100C380028220021134801F078FC114828220021BD
:100C480001F073FC0023B1E715F801A00EF801AF1D
:100C58000131E2E7BCF1040FE9D103880B495BBA23
:100C68009BB2E3E7262CA1D8631C2A55DCB20123EA
:100C78009CE70024F8E700BF00100140680200204C
:100C88003000002058000020040000200000002050
:100C98000268134B9A4222D1124A134B1268196800
:100CA80002328A4282BF1A6801321A600F4A104B18
:100CB8001268196802328A4282BF1A6801321A60C1
:100CC8000C4A002352F82310B1F5FB7F3EBF52F8BF
:100CD8002310013142F823100133102BF2D1704751
:100CE8000044014004000020C4000020000000204F
:100CF800C00000208000002072B6FEE782B00C4BD6
:100D0800002100915A6C42F480425A645A6C02F4F1
:100D180080420092009A01911A6C42F080521A6443
:100D28001B6C03F080530193019B02B0704700BF16
:100D38000038024007B50368154A93420ED10023D4
:100D48000093144B1A6C42F008021A641B6C03F0EF
:100D580008030093009B03B05DF804FB0E4A93421E
:100D6800F9D100220B4B0192596C41F400315964BE
:100D78005B6C03F40033019311461920019B00F0CA
:100D880077F9192003B05DF804EB00F0A3B900BFB0
:100D9800000C00400038024000440140F0B506460F
:100DA80089B01422002103A801F0BFFB3268314B3F
:100DB8009A425CD1002503F5943301955A6C2E4C68
:100DC80042F010025A645A6C02F010020192019A21
:100DD80002951A6B42F001021A631B6B03F00103C0
:100DE8000293029B4FF4C0600223CDE9030303275B
:100DF8000723224803A9CDE9067300F059FBDFF861
:100E080088C0A5614FF00063C4E900C34FF4806354
:100E1800C4E904354FF48073C4E907352046042338
:100E2800C4E90255C4E90937C4E90B5500F08AF949
:100E380008B1FFF761FF124AF463A663114C4FF043
:100E48000063C4E90023402100234FF48062204658
:100E5800C4E90213C4E90423C4E90633C4E9083326
:100E680000F070F908B1FFF747FFB463A66309B053
:100E7800F0BD00BF00100140080200200000024041
:100E8800B8640240A801002040640240FEE7FEE783
:100E9800FEE7FEE7FEE770477047704700F0C4B80A
:100EA800012000F0CBBB022000F0C8BB042000F0FA
:100EB800C5BB082000F0C2BB102000F0BFBB08B5BE
:100EC800202000F0BBFB402000F0B8FB802000F0A1
:100ED800B5FB4FF4807000F0B1FBBDE808404FF45B
:100EE800007000F0ABBB0000014800F0ADBE00BFD1
:100EF800B002002008B54FF4806000F09FFB4FF46B
:100F0800006000F09BFB4FF4805000F097FB4FF41B
:100F1800005000F093FB4FF4804000F08FFBBDE8D9
:100F280008404FF4004000F089BB0000014800F081
:100F3800FFB900BF08020020014800F0F9B900BF5E
:100F4800A8010020034AD2F8883043F47003C2F89D
:100F58008830704700ED00E0DFF834D0FFF7F2FF8B
:100F68000C480D490D4A002302E0D458C4500433FC
:100F7800C4188C42F9D30A4A0A4C002301E01360D2
:100F88000432A242FBD301F0D9FAFFF727FB7047DE
:100F98000000022000000020140000203026000875
:100FA8001400002044030020FEE7000038B50E4B73
:100FB8001A784FF47A73B3FBF2F30C4A05461068BB
:100FC800B0FBF3F000F094F8044658B90F2D09D897
:100FD800024629464FF0FF3000F04AF8044B2046FD
:100FE8001D6038BD0120FCE70C000020080000202F
:100FF8001000002008B50B4B1A6842F400721A6002
:101008001A6842F480621A601A6842F480721A60A0
:10101800032000F01BF80F20FFF7C8FFFFF76EFE54
:10102800002008BD003C0240034A044B11681B78AD
:101038000B441360704700BF400300200C000020E1
:10104800014B1868704700BF400300200749CA6871
:1010580022F4E0620302120403F4E063120C134367
:1010680043F0BF6343F40033CB60704700ED00E00A
:10107800164B30B5DC68C4F30224C4F10703251D00
:10108800042B28BF0423062D4FF0FF358CBF033CEB
:10109800002405FA03F321EA0303A54022EA050226
:1010A800A340002843EA0203ACBF00F16040084AAD
:1010B8004FEA0313B8BF00F00F00DBB2AABF00F578
:1010C8006140135480F8003330BD00BF00ED00E0EC
:1010D80014ED00E0002807DB044A4109012300F071
:1010E8001F00834042F82130704700BF00E100E054
:1010F8000138B0F1807F0BD24FF0E023054A5861E8
:10110800F02182F823100020072298611A617047A5
:101118000120704700ED00E0036810B5084C024656
:10112800D9B210391820B1FBF0F0205CD06523F457
:101138007F7020F003005F2988BF0430906510BDE0
:101148001826000870B50446FFF77AFF0546002CFC
:1011580060D0022384F835302268002384F83430C4
:10116800136823F00103136022681368D8072ED48C
:1011780013683248A1691840D4E901352B43E56862
:101188002B4325692B4365692B43E5690B432B43A7
:10119800256A2B430343606A042802BFD4E90B562F
:1011A80035432B4313605369042823F0070343EAAC
:1011B800000335D1A06AE56A03438DB391B90128CC
:1011C80020D030F002012BD1E90129D51DE0FFF72D
:1011D80037FF401B0528C7D920230320636584F8FF
:1011E800350070BDB1F5005F16D1032818D801A1EC
:1011F80051F820F013120008D1110008131200084A
:101208000D120008B5F1C07F0AD1402363650123A0
:1012180084F835300120E4E70228F6D90328D3D032
:1012280053612046FFF778FFE26D3F2393408360C8
:1012380000200123606584F83530D2E73F8010F044
:1012480070B590F83440866D012C30D0012480F8B8
:10125800344090F83540012C4FF0000425D1022588
:1012680080F8355044650468256825F48025256094
:1012780063608368402B0EBFA260A160E260C26D0C
:1012880008BFE1603F239340B360236843F016032F
:101298002360036C1BB1236843F0080323602368B1
:1012A80043F001032360002070BD80F83440022021
:1012B800FAE770B50446866DFFF7C2FE94F835303C
:1012C800022B054606D0802363650120002384F89D
:1012D800343070BD23681A6822F016021A605A6901
:1012E80022F080025A61226C0AB9A26C1AB11A68FB
:1012F80022F008021A601A6822F001021A602368B4
:10130800186810F0010007D1E26D3F239340B360E5
:10131800012384F83530D9E7FFF792FE401B0528F2
:10132800EDD920230320636584F83500CEE700005B
:10133800F7B5002301935C4B856D1F68C36D2E685C
:1013480008229A40324204460CD0016808684007D7
:1013580008D5086820F004000860AA60626D42F0B1
:101368000102626501229A40324208D02168496927
:10137800090641BFAA60626D42F00202626504225A
:101388009A40324208D021680968880741BFAA609C
:10139800626D42F00402626510229A40324210D017
:1013A8002368196809070CD5AA601A68500337D54D
:1013B8001B68190301D4236C00E0A36C0BB1204611
:1013C8009847E16D20228A4032423AD02368186853
:1013D800C60636D5AA6094F83520052A1A6827D19A
:1013E80022F016021A605A6922F080025A61226CB1
:1013F8000AB9A26C1AB11A6822F008021A603F23CF
:101408008B40AB60012384F83530002384F83430F6
:10141800236D002B45D0204603B0BDE8F0401847A7
:101428001A68D2055EBF1A6822F008021A60C2E77D
:10143800500327D51B68190331D4636C0BB12046C0
:101448009847636D6BB3636DDA0719D522684FF45B
:101458001653B7FBF3F7052384F83530136823F0E8
:1014680001031360019B0133BB42019302D8136847
:10147800DB07F7D4012384F83530002384F83430AF
:10148800E36CC6E71A6812F4807208D1196821F073
:1014980010011960012384F8353084F83420E36B97
:1014A800CCE703B0F0BD00BF08000020406D7047D6
:1014B8002DE9F74FDFF880915D4A00230D6801247C
:1014C8009C4004EA0506AC4340F0A3804D6803271E
:1014D80005F003044FEA430807FA08FC671E012FCA
:1014E8006FEA0C0C34D8876807EA0C0ECF6807FA45
:1014F80008F747EA0E078760476827EA060EC5F32C
:1015080000179F4047EA0E074760C76807EA0C0EB6
:101518008F6807FA08F747EA0E07022CC76019D147
:101528004FEAD30A00EB8A0A03F0070BDAF82070B7
:101538004FEA8B0B4FF00F0E0EFA0BFE27EA0E0E3A
:101548000F6907FA0BF747EA0E07CAF8207001E09F
:10155800032CDAD1076804FA08F407EA0C073C43BD
:1015680015F4403F046054D000240194D9F8444055
:1015780044F48044C9F84440D9F8444023F00307B0
:1015880007F1804704F4804407F59C37019403F081
:10159800030C019CD7F808E04FEA8C0C0F2404FADE
:1015A8000CF42EEA040E234CA04239D004F58064D2
:1015B800A04237D004F58064A04235D004F5806499
:1015C800A04233D004F58064A04214BF0724042449
:1015D80004FA0CF444EA0E04BC609468F74315F46A
:1015E800801F0CBF3C4034439460D46815F4001F3E
:1015F8000CBF3C403443D460546815F4003F0CBF22
:101608003C40344354601468ED0354BF3C403443B9
:1016180014600133102B7FF451AF03B0BDE8F08F95
:101628000024D5E70124D3E70224D1E70324CFE738
:10163800003C01400000024000380240044A516961
:10164800014208B502D05061FFF76CF908BD00BF30
:10165800003C01402DE9F341044640B30368DE072E
:1016680010D423689D075BD42368190700F19D8077
:1016780023685A0700F1BD80A369002B40F024813C
:1016880000202CE08D4B9A6802F00C02042A07D047
:101698009A6802F00C02082A0BD15B68590208D537
:1016A800864B1B689A03DCD56368002BD9D10120CF
:1016B80015E06368814DB3F5803F13D12B6843F47F
:1016C80080332B60FFF7BCFC7C4E054633689B03D8
:1016D800C7D4FFF7B5FC401B6428F7D9032002B034
:1016E800BDE8F081B3F5A02F04D12B6843F4802323
:1016F8002B60E3E72A6822F480322A602A6822F401
:1017080080222A60002BDDD1FFF79AFC06462B6861
:101718009F03A6D5FFF794FC801B6428F7D9DDE763
:10172800664B9A6812F00C0F07D09A6802F00C0208
:10173800082A11D15B685D020ED4604A13689907C4
:1017480002D5E368012BB2D11368216923F0F803AD
:1017580043EAC103136087E7E268594BB2B101223B
:101768001A60FFF76DFC554D06462B689B0707D599
:101778002B68226923F0F80343EAC2032B6073E75E
:10178800FFF75EFC801B0228EFD9A7E71A60FFF776
:1017980057FC4A4E054633689F077FF565AFFFF74C
:1017A8004FFC401B0228F6D998E76269444B82B186
:1017B8000122C3F8802EFFF743FC404E0546736FA5
:1017C8009B073FF555AFFFF73BFC401B0228F6D9B6
:1017D80084E7C3F8802EFFF733FC384E0546736F55
:1017E8009F077FF545AFFFF72BFC401B0228F6D972
:1017F80074E7324B1A6C12F0805228D101921A6C9D
:1018080042F080521A641B6C03F080530193019BD1
:1018180001272C4D2B68D8051BD5A368274D012B14
:1018280027D12B6F43F001032B67FFF709FC234EE9
:10183800054641F28838336F9A0739D5002F3FF4AF
:101848001BAF1E4A136C23F08053136414E7002760
:10185800DFE72B6843F480732B60FFF7F1FB064644
:101868002B68D905D9D4FFF7EBFB801B0228F7D9E1
:1018780034E7052B04D12B6F43F004032B67D0E723
:101888002A6F22F001022A672A6F22F004022A67CF
:10189800002BCAD1FFF7D4FB41F2883806462B6FDC
:1018A8009B07CBD5FFF7CCFB801B4045F7D915E745
:1018B800FFF7C6FB401B4045BDD90FE70038024083
:1018C8000000474200700040374DAA6802F00C0241
:1018D800082A3ED0022B354B4FF000021A662BD156
:1018E800FFF7AEFB06462B6899011FD4D4E90732EF
:1018F8001343626A43EA8213E26A43EA0263A26A12
:101908005208013A43EA02436B60284B264D0122F4
:101918001A66FFF795FB04462B689A013FF5B0AEAF
:10192800FFF78EFB001B0228F6D9D7E6FFF788FBE6
:10193800801B0228D7D9D1E6FFF782FB04462B6823
:101948009B017FF59DAEFFF77BFB001B0228F6D9B4
:10195800C4E6012B3FF4ABAE6B68E26903F4800187
:1019680091427FF4A4AE216A03F03F028A427FF4D9
:101978009EAE616A47F6C0721A40B2EB811F7FF4CF
:1019880096AEA26A520803F44031013AB1EB024F15
:101998007FF48DAEE26A03F07063B3EB026F14BF9D
:1019A800012000209BE600BF0038024000004742AB
:1019B800134908B58B6803F00C03042B1CD0082BC3
:1019C8001CD14A684B68496813F4800314BF0D485A
:1019D8000D48C1F3881118BF002302F03F02A1FB94
:1019E8000001FEF7F5FB064B5B68C3F301430133C7
:1019F8005B00B0FBF3F008BD0248FCE70248FAE7D9
:101A08000038024040787D010024F4002DE9F041BF
:101A18000D46044610B90120BDE8F081434B1A6811
:101A280002F007028A4228D321688F072DD4C807FD
:101A380040D43E4B1A6802F00702AA4265D82268D1
:101A480051076BD4130707D5394A2169936823F4E2
:101A5800604343EAC1039360FFF7AAFF344B354A5A
:101A68009B68C3F30313D35CD840334B1860334BE4
:101A78001868FFF79BFA0020CEE7CAB21A701B68F5
:101A880003F007038B42C6D1CEE7294B11F0040FB0
:101A98001EBF9A6842F4E0529A600E0742BF9A68E5
:101AA80042F460429A609A68A06822F0F002024309
:101AB8009A60BCE762681E4B012A1CD11B6813F4AC
:101AC800003FA8D01A4EB36823F003031343B36052
:101AD800FFF7B6FA41F288380746B368626803F040
:101AE8000C03B3EB820FA4D0FFF7AAFAC01B404542
:101AF800F3D9032090E7911E01291B6802D813F03F
:101B0800007FDEE713F0020FDBE7EAB21A701B680A
:101B180003F00703AB427FF47EAF90E70449E06827
:101B28008B6823F4E05303438B608BE7003C02404F
:101B38000038024008260008080000201000002095
:101B4800044B054A9B68C3F38223D35C034A10689D
:101B5800D8407047003802400026000808000020DE
:101B6800044B054A9B68C3F34233D35C034A1068AD
:101B7800D8407047003802400026000808000020BE
:101B880090F83D30012B24D10223134A80F83D30D0
:101B98000368934212D0B3F1804F0FD0A2F57C4274
:101BA80093420BD002F58062934207D002F580621F
:101BB800934203D002F59A32934204D19A6802F014
:101BC8000702062A03D01A6842F001021A600020B0
:101BD80070470120704700BF0000014090F83D3079
:101BE800012B28D1022380F83D300368DA6842F0DF
:101BF8000102DA60114A934212D0B3F1804F0FD03C
:101C0800A2F57C4293420BD002F58062934207D042
:101C180002F58062934203D002F59A32934204D1CE
:101C28009A6802F00702062A03D01A6842F00102F5
:101C38001A60002070470120704700BF0000014073
:101C48007047704770477047036870B5DD681E6954
:101C5800B10704460DD5AA070BD56FF002021A6129
:101C6800012202779B699B0769D0FFF7EAFF0023EF
:101C78002377710710D56A070ED523686FF0040221
:101C88001A61022222779B6913F4407F20465CD0B8
:101C9800FFF7D7FF0023237733070FD528070DD584
:101CA80023686FF008021A6104222277DB6999071A
:101CB800204650D0FFF7C5FF00232377F20610D542
:101CC800EB060ED523686FF010021A6108222277FE
:101CD800DB6913F4407F204643D0FFF7B2FF0023AF
:101CE8002377F00708D5E90706D523686FF00102C6
:101CF8001A612046FEF7CCFF320608D52B0606D51A
:101D080023686FF080021A61204600F078F97006A7
:101D180008D5690606D523686FF040021A61204687
:101D2800FFF791FFB20622D5AB0620D523686FF0E6
:101D3800200220461A61BDE8704000F05FB9FFF745
:101D48007FFF2046FFF77EFF91E7FFF779FF2046E8
:101D5800FFF778FF9EE7FFF773FF2046FFF772FF54
:101D6800AAE7FFF76DFF2046FFF76CFFB7E770BDE6
:101D78001D4A036890420ED0B0F1804F0BD0A2F5F7
:101D88007C42904207D002F58062904203D002F56F
:101D98008062904208D14A6823F070031343CA68EE
:101DA80023F4407313430AE0104A9042F7D002F537
:101DB80080629042F3D002F580629042EFD04A6987
:101DC80023F0800313438A68C2620A688262064A63
:101DD800904204BF0A690263026842F0040202608A
:101DE8000122426103607047000001400040014049
:101DF80010B5044630B390F83D3003F0FF021BB92C
:101E080080F83C20FEF796FF0223206884F83D30D6
:101E1800211DFFF7ADFF012384F84630002084F828
:101E28003E3084F83F3084F8403084F8413084F8FC
:101E3800423084F8433084F8443084F8453084F8DC
:101E48003D3010BD0120FCE710B584680A4324F436
:101E58007F4442EA03222243826010BD38B590F8DD
:101E68003C30012B04464FF0020000F08E8084F8CD
:101E78003D000122206884F83C20836823F47F43D6
:101E880023F0770383600B68602B4FD032D8402B48
:101E980064D016D8202B0DD00AD833F0100109D001
:101EA800012384F83D30002384F83C30104638BDC7
:101EB800302BF5D1826822F07002134343F00703F8
:101EC80028E0502BECD14A68CD68016A036A23F0F8
:101ED80001030362836921F00A0123F0F00343EA56
:101EE80005130A4383610262836823F0700343F099
:101EF80057030FE0B3F5805F0DD0B3F5005F0CD04A
:101F0800702BCDD1CB68D1E90121FFF79DFF836804
:101F180043F0770383600022C2E7CB68D1E901214F
:101F2800FFF792FF836843F48043F3E7036A026A8A
:101F38004D68C96822F010020262826923F0A0038A
:101F480022F4704243EA051342EA013282610362D5
:101F5800836823F0700343F06703DBE74A68CD68C2
:101F6800016A036A23F001030362836921F00A010D
:101F780023F0F00343EA05130A438361026283688E
:101F880023F0700343F04703C4E702468EE70000DE
:101F980030B590F83C30012B02464FF002002AD0B1
:101FA800136882F83D005C680D68986824F0700436
:101FB8002C435C60104CA34212D0B3F1804F0FD079
:101FC800A4F57C44A3420BD004F58064A34207D057
:101FD80004F58064A34203D004F59A34A34204D1E3
:101FE800496820F08000014399600123002082F8AD
:101FF8003D3082F83C0030BD00000140704770471A
:10200800026802F10C0353E8003F23F490730C328A
:1020180042E8003102680029F2D102F1140353E8C2
:10202800003F23F0010302F1140C4CE800310029B1
:10203800F3D1036B012B0BD102F10C0353E8003FE2
:1020480023F0100302F10C0C4CE800310029F3D105
:10205800202380F842300023036370470268C16878
:1020680038B5136923F440530B431361054683685D
:102078000069D168034368690343E86921F416419C
:1020880021F00C0103430B43D3605369A96923F47E
:1020980040730B4353611F4B9A4203D003F580638F
:1020A8009A4224D1FFF75CFDEA691921B2F5004F85
:1020B800D5E90043A0FB01011CD1DA184FF0000557
:1020C80045EB0503FEF784F86422B0FBF2F102FB4E
:1020D8001103DB003233B3FBF2F303F007025B00BA
:1020E80002EB011203F4F8731344A36038BDFFF741
:1020F80027FDD9E79A009B0FFEF76AF86422B0FB28
:10210800F2F102FB11031B013233B3FBF2F303EBD1
:102118000113EAE700100140F7B505460C461746DB
:102128001E462A68136834EA030301D1002021E01F
:10213800701CF7D0FEF784FFC01B86421CD3DEB1AB
:102148002B68DA685107ECD5802CEAD0402CE8D00F
:102158001A681207E5D5002401941A6801925B6891
:1021680001932846019BFFF74BFF08236B6485F812
:102178004040012003B0F0BD0320FBE710B5044642
:1021880048B390F8413003F0FF021BB980F84020B3
:10219800FEF704FE2268242384F84130D36823F430
:1021A8000053D3602046FFF759FF23681A6922F4C9
:1021B80090421A615A6922F02A025A61DA6842F496
:1021C8000052DA6000202023606484F8413084F8EB
:1021D8004230606310BD0120FCE72DE9F8439846C2
:1021E80090F84130202B04460E4617463FD100296F
:1021F8003FD0002A3DD021230025456480F8413096
:10220800FEF71EFFA368A784B3F5805F8146E784C5
:1022180003D123690BB935461E46E38C9BB253B9EB
:1022280043464A4640212046FFF776FF202350B90F
:1022380084F841300AE043464A4680212046FFF7A9
:102248006BFF28B1202384F841300320BDE8F883D0
:1022580022684EB935F8023BC3F308035360E18C9A
:10226800013989B2E184D8E716F8013BF6E7022084
:10227800ECE70120EAE710B50446226802F10C03F6
:1022880053E8003F23F490730C3242E8003123688E
:102298000029F2D103F1140252E8002F22F00102C2
:1022A80003F1140040E800210029F3D1226B012A30
:1022B8000BD103F10C0252E8002F22F0100203F1B7
:1022C8000C0040E800210029F3D15A6952061AD5BA
:1022D80003F1140252E8002F22F0400203F1140027
:1022E80040E800210029F3D1E06B60B10165FEF7F9
:1022F800E0FF40B1E06BFFF7D9F8202803D11023A5
:102308006364032010BD00202023E08584F8423058
:102318002063F7E770477047704708B5806B03681C
:102328005A6990F84110212912D1120610D50022BD
:10233800C28403F10C0252E8002F22F0C00203F11C
:102348000C0C4CE800210029F3D1202280F8412010
:102358005B6990F84220222A05D15B0603D5002349
:10236800C385FFF74DFE436C43F010034364FFF74A
:10237800D3FF08BD806B08B501234363036B012BB2
:1023880004D1818D4908FEF7FFFB08BDFFF7C3FFA5
:10239800FBE708B50346806B1B681B6813F4807362
:1023A80037D1C385026802F10C0353E8003F23F4D8
:1023B80080730C3242E8003103680029F2D103F13E
:1023C800140252E8002F22F0010203F1140C4CE829
:1023D80000210029F3D103F1140252E8002F22F062
:1023E800400203F1140C4CE800210029F3D120220B
:1023F80080F84220026B012A0BD103F10C0252E84B
:10240800002F22F0100203F10C0C4CE800210029E7
:10241800F3D100234363036B012B03D1818DFEF7B6
:10242800B3FB08BDFFF776FFFBE7000037B513469F
:1024380004468285002281624264222084F8420098
:10244800E06B214DC563214D0564214DC0E9135250
:1024580025680A46291DFEF7F3FE38B11023636488
:10246800202384F84230012003B030BD2368019056
:102478001A6801925A680192019A22695AB103F1C5
:102488000C0252E8002F42F4807203F10C0444E875
:1024980000210029F3D103F1140252E8002F42F081
:1024A800010203F1140444E800210029F3D103F1E7
:1024B800140252E8002F42F0400203F1140444E8E9
:1024C80000210029F3D1CFE79B2300087D230008D2
:1024D8002323000873B590F84260202E044622D1C9
:1024E80011B9012002B070BD002AFAD001230025DD
:1024F80003634563FFF79AFF236B012BF1D1226831
:1025080001951368019353680193019B02F10C0331
:1025180053E8003F43F0100302F10C0444E8003193
:102528000029F3D1DEE70220DCE7024403469342A8
:1025380000D1704703F8011BF9E7000070B50D4D95
:102548000D4C641BA4100026A64209D10B4D0C4C5F
:1025580000F046F8641BA4100026A64205D170BD01
:1025680055F8043B98470136EEE755F8043B984781
:102578000136F2E728260008282600082826000841
:102588002C26000810EE101AC1F3C7530029A3F136
:102598007F02ACBF01204FF0FF301E2A1ADC002A50
:1025A80003DA013218BF00207047162AD8BF4FF44B
:1025B8008003C1F31601D8BF134141F40001CDBF18
:1025C800963B5B18C2F1170201FA03F3D8BFD34058
:1025D80058437047FDEEC07A17EE900A7047000026
:1025E800F8B500BFF8BC08BC9E467047F8B500BFF8
:0825F800F8BC08BC9E467047C8
:1026000000000000010203040000000000000000C0
:10261000010203040607080900061016000610163A
:08262000E8DBFF7F0100000070
:04262800BD010008E8
:04262C009901000808
:102630002C0100002C0100000024F4000100000027
:042640001000000086
:0400000508000F617F
:00000001FF
